:020000040000FA
:1000000017EF02F0026EC80E036E00000000000041
:10001000000000000000032EF8D7022EF4D71200D3
:100020001E0EF0DF8B94380E09D80C0E07D8010E87
:1000300005D8010EE7DF060E01D88B848C6E000018
:100040008B86000000008B96010EDCDF12000F0B88
:10005000E844F926300C310C320C330C340C350CDE
:10006000360C370C380C390C12000B6A0C6A0D6A0E
:100070000E6A0F6A106A116A126A136A146A1D6A9C
:100080008B94010EDBDF010EBDDF800ED7DF01D8C0
:100090001FD08B84540ED2DF520ED0DF450ECEDF40
:1000A0004E0ECCDF410ECADF200EC8DF4D0EC6DF7C
:1000B000430EC4DF520EC2DF2D0EC0DF410E1EEC18
:1000C00000F0530E1EEC00F04D0E1EEC00F012007E
:1000D0008B94C00EB3DF8B84530EB0DF740EAEDF93
:1000E000610EACDF720EAADF740EA8DF8B94C80E0F
:1000F000A5DF8B844D0E1EEC00F06F0E1EEC00F0A1
:10010000640E1EEC00F06F0E1EEC00F03A0E1EECBA
:1001100000F0630E1EEC00F06D0E1EEC00F081AEE0
:1001200027D081A674EF04F081AA01D0F8D781AA64
:1001300097EF00F01D701DA0A0EF00F0ACEF00F0F5
:100140008B94CD0E7BDF8B84630E1EEC00F06D0E66
:100150001EEC00F08FEF00F08B94CD0E6FDF8B84E0
:10016000200E1EEC00F06D0E1EEC00F08FEF00F084
:10017000066A076A086A096A0A6A8B94800E5EDF5B
:100180008B84200E5BDF490E59DF6E0E57DF690E40
:1001900055DF630E53DF690E51DF610E4FDF6C0ECA
:1001A0004DDF690E4BDF7A0E49DF610E47DF6E0EC1
:1001B0001EEC00F0640E1EEC00F06F0E1EEC00F062
:1001C000200E3CDF200E3ADF8B94C00E37DF8B848D
:1001D000200E34DF4D0E32DF650E30DF640E2EDF71
:1001E000690E2CDF640E2ADF610E28DF200E26DF69
:1001F000650E24DF6D0E22DF200E20DF200E1EDFB5
:100200008B94CC0E1BDF43EC04F0200E17DFB80EEE
:10021000F9DEB80EF7DEB80EF5DEF28A8B94800EAA
:100220000DDF8B84200E0ADF490E08DF6E0E06DF1D
:10023000690E04DF630E02DF690E00DF610EFEDE71
:10024000720EFCDE200EFADE4D0EF8DE650EF6DED6
:10025000640EF4DE690EF2DE640EF0DE610EEEDE98
:10026000200EECDE8B94C00EE9DE8B84530EE6DEAE
:10027000740EE4DE6F0EE2DE700EE0DE200EDEDED7
:10028000200EDCDE200EDADE200ED8DE64D881A45B
:100290005CEF04F081B057EF01F047EF01F081A46B
:1002A0005CEF04F081B257EF01F04FEF01F081A451
:1002B0005CEF04F081A062EF01F081A285EF01F014
:1002C00057EF01F081A45CEF04F081B06AEF01F018
:1002D00062EF01F081A45CEF04F081A275EF01F000
:1002E00081A047EF01F06AEF01F081A45CEF04F018
:1002F00081B27DEF01F075EF01F00A2AAFD828D85E
:1003000081A45CEF04F057EF01F081A45CEF04F0EE
:1003100081B28DEF01F085EF01F081A45CEF04F074
:1003200081A098EF01F081A24FEF01F08DEF01F075
:1003300081A45CEF04F081B0A0EF01F098EF01F030
:100340000A06ABD805D881A45CEF04F057EF01F0A2
:100350008B94C80E73DE1DB017D08B84085077DEE7
:100360006DDE075074DE6ADE065071DE67DE2C0E2D
:1003700065DE300E63DE200E61DE630E1EEC00F0E3
:100380006D0E1EEC00F012008B84095060DE56DE0C
:1003900008505DDE53DE2C0E51DE075058DE4EDE77
:1003A000065055DE4BDE200E49DE4D0E1EEC00F0F1
:1003B000200E1EEC00F012008B94800E3FDE8B842A
:1003C000560E3CDE2E0E3ADE200E38DE4D0E36DEA8
:1003D000650E34DE640E32DE2E0E30DE200E2EDE92
:1003E000ABEC01F08B94C00E29DE8B845A0E26DE16
:1003F000650E24DE720E22DE610E20DE720E1EDE1F
:10040000200E1CDE4D0E1ADE310E18DE200E16DE1A
:10041000200E14DE4D0E12DE320E10DE200E0EDE29
:10042000200E0CDE200E0ADE200E08DE1200FF0E6B
:10043000936E000E956E040E966EC10E926E200E97
:10044000946E8A6A8C6A896A8D6AEADD800EF26E21
:10045000000E016E800E006E35EF00F0062A0A0EC7
:100460000618D8A41200066A072A060E0718D8A490
:100470001200066A076A082A0A0E0818D8A4120091
:10048000066A076A086A092A060E0918D8A4120023
:10049000066A076A086A096A1200066603D0090E2E
:1004A000066E02D006061200076603D0090E076E1C
:1004B00002D007061200086603D0090E086E02D0AB
:1004C00008061200096606D0066A076A086A096A01
:1004D0000A6A12000906120006C00BF007C00CF0F1
:1004E00008C00DF009C00EF00AC00FF08B94800E0A
:1004F000A5DD8B844D0EA2DD310EA0DD200E9EDD2C
:10050000410E9CDD720E9ADD6D0E98DD610E96DD5A
:100510007A0E94DD650E92DD6E0E90DD610E8EDD3D
:10052000640E8CDD610E8ADD200E88DD200E86DDF6
:10053000200E84DD8B94C00E81DD8B84200E7EDD49
:10054000560E7CDD610E7ADD6C0E78DD6F0E76DD89
:10055000720E74DD3A0E72DD200E70DDABEC01F030
:10056000B80E50DDB80E4EDDB80E4CDD25DF1200A2
:100570001DA0B7EF03F006C010F007C011F008C0CF
:1005800012F009C013F00AC014F08B94800E56DDEF
:100590008B844D0E53DD320E51DD200E4FDD410EAA
:1005A0004DDD720E4BDD6D0E49DD610E47DD7A0EBD
:1005B00045DD650E43DD6E0E41DD610E3FDD640EEF
:1005C0003DDD610E3BDD200E39DD200E37DD200ED6
:1005D00035DD8B94C00E32DD8B84200E2FDD560E60
:1005E0002DDD610E2BDD6C0E29DD6F0E27DD720E09
:1005F00025DD3A0E23DD200E21DDABEC01F0B80E37
:1006000001DDB80EFFDCB80EFDDCD6DE12001DA049
:1006100067EF03F00FC015F014C016F01AEC04F0E9
:10062000175027EC04F08B94800E08DD8B84410E6C
:1006300005DD720E03DD650E01DD610EFFDC200EAF
:10064000FDDC430EFBDC610EF9DC6C0EF7DC630EA7
:10065000F5DC750EF3DC6C0EF1DC610EEFDC640E84
:10066000EDDC610EEBDC3A0EE9DC200EE7DC8B946E
:10067000C00EE4DC8B84560EE1DC610EDFDC6C0E18
:10068000DDDC6F0EDBDC720ED9DC3A0ED7DC200E1F
:10069000D5DC200ED3DC0950DADCD0DC1C50D7DCF2
:1006A000CDDC1B50D4DCCADC2C0EC8DC1A50CFDCED
:1006B000C5DC200EC3DC200EC1DC4D0EBFDCB80E45
:1006C000A1DCB80E9FDCB80E9DDC60EF04F08B94CB
:1006D000800EB4DC8B84410EB1DC720EAFDC650E93
:1006E000ADDC610EABDC200EA9DC430EA7DC610E95
:1006F000A5DC6C0EA3DC630EA1DC750E9FDC6C0E1A
:100700009DDC610E9BDC640E99DC610E97DC3A0E79
:1007100095DC200E93DC8B94C00E90DC8B84530E02
:100720008DDC740E8BDC610E89DC720E87DC740E3E
:1007300085DC200E83DC450E81DC720E7FDC720EC0
:100740007DDC6F0E7BDC2D0E79DC4D0E77DC6F0EC1
:1007500075DC640E73DC6F0E71DC210E6FDCB80E7D
:1007600051DCB80E4FDCB80E4DDCDCEF01F08B94A1
:10077000800E64DC8B844D0E61DC650E5FDC6D0EDB
:100780005DDC6F0E5BDC720E59DC690E57DC610EAE
:1007900055DC200E53DC320E51DC200E4FDC610E96
:1007A0004DDC500E4BDC650E49DC6E0E47DC610EF5
:1007B00045DC730E43DC8B94C00E40DC8B84700EE2
:1007C0001EEC00F0610E1EEC00F0720E1EEC00F04C
:1007D000610E1EEC00F0200E1EEC00F06D0E1EEC03
:1007E00000F0650E1EEC00F0740E1EEC00F0720EB0
:1007F0001EEC00F06F0E1EEC00F0730E1EEC00F00D
:10080000200E1EEC00F0200E1EEC00F0200E1EEC60
:1008100000F0200E1EEC00F0200E1EEC00F0B80ED2
:1008200002EC00F0B80E02EC00F0B80E02EC00F0A2
:10083000DCEF01F0176A186A1550176E1606D8B467
:10084000120015501726D8B0182A1EEF04F0196EA2
:100850001A6A1B6A1C6A1952D8B412001A2A1A5052
:100860000A0AD8A43FEF04F01A6A1B50090AD8A458
:100870003EEF04F01B6A1C2A3FEF04F01B2A192EDE
:100880002EEF04F012001DB00FD08B84630E1EEC0F
:1008900000F06D0E1EEC00F0200E1EEC00F0200E9D
:1008A0001EEC00F007EF01F08B84200E1EEC00F030
:1008B0004D0E1EEC00F0120081A45CEF04F07CDD14
:1008C00081A635EF00F081AEB8EF00F081A804DE1C
:1008D00082AA4EDE81AC07EF03F060EF04F081AC3A
:1008E0006FEF04F0DCEF01F081A674EF04F035EF58
:0208F00000F016
:020000040030CA
:0300010002000EEC
:020005008181F7
:060008000FC00FE00F40E5
:00000001FF
